:020000041000EA
:10000000002008205D0100101B0100101D010010E0
:100010001101001011010010110100101101001058
:100020001901001019010010190100101F01001022
:10003000110100101901001021010010230100100E
:100040001101001011010010110100101101001028
:100050001101001011010010110100101101001018
:100060001101001011010010110100101101001008
:1000700011010010110100101101001011010010F8
:1000800011010010110100101101001011010010E8
:1000900011010010110100101101001011010010D8
:1000A00011010010110100101101001011010010C8
:1000B00011010010110100101101001011010010B8
:1000C00011010010110100101101001011010010A8
:1000D0001101001011010010110100101101001098
:1000E0001101001011010010110100101101001088
:1000F0001101001011010010110100101101001078
:100100001101001011010010110100101101001067
:10011000EFF30580103800BE00BE00BE00BE00BE7A
:1001200000BE00BEF2EB8871C81F0210EC1F021067
:10013000A001001090A31AE7D3DEFFFF42012110B7
:10014000FF01000058460200793512AB4FF0000065
:100150001E49086006C881F3088810474FF05040D8
:10016000006810B14FF00000F2E70DA40ECC00299A
:1001700002D000F012F8F9E71549164A002000E015
:1001800001C19142FCD11449884714498847144958
:10019000884700BEFDE701C901C29A42FBD3704700
:1001A000EC1F021010010020B4280020904702101C
:1001B00000000820000008209047021000100820CE
:1001C00000100820000000007047000008ED00E06B
:1001D000B428002014490020F5480010E104001064
:1001E000B9480010F8B500BF064B0749C91A891075
:1001F00048BF0131491003D0044B0BB101481847E7
:10020000704700BFB4280020B42800200000000080
:1002100008B5054B1BB105490548AFF30080BDE8A3
:100220000840FFF7E1BF00BF0000000034380020A5
:10023000FC6B0110704782B08DE80C0002B0704773
:1002400000207047704700207047704770470000DB
:1002500008B50146024B18680268526C904708BD09
:10026000742A002008B5102906D8036823F4F03357
:1002700043EA4131016008BD034B044A40F22911B1
:10028000034804F01DFB00BF006C0110206C01103E
:10029000606C011000B583B0014600230193102368
:1002A000019303F5FC03019301A8FFF7DBFF019B1A
:1002B00023F00C0242F00802019223F4F85222F0DB
:1002C0000C0242F0080201920C4A1A4042F0080265
:1002D00001920B4A1A4042F00801019142F00902D2
:1002E0000192084A1A4042F0090201920648184059
:1002F00040F00900019003B05DF804FBF3E0FFFE5D
:10030000F3E07FFEF3E07FFCF1E07FFC08B53F29DE
:1003100006D8036823F4FC0343EA4141016008BDA9
:10032000034B044A40F21B11034804F0C9FA00BF12
:10033000B46C0110C86C0110606C011010B582B073
:10034000044628482060A180E2802381264B236058
:100350000598E0609DF810302374069B63610A9B4A
:10036000A361079BE3616FF000432362089A626216
:100370000B9AA262E3621D4908F030F80121E0699E
:1003800000F0BEF90121606A00F0BAF9012008F01E
:100390009FF8E063FFF77EFF019020F00C030193CC
:1003A00020F0807020F00C000190E268104B9A421F
:1003B00015D0182101A8FFF7A9FFE36BE268083206
:1003C0009B0103F1A043002119605A609960019AD2
:1003D0001A61204607F0D6FD204602B010BD1A2152
:1003E000E8E700BF88880110EC8E0110C06878042F
:1003F0000080084038B504460D46174B19601020A0
:100400000AF06AF9154B1B68E361154B1B68236200
:1004100000200AF08FF913480AF080F92B689B69D5
:1004200028469847B0B101200AF07EF9AB6A6A6AA3
:10043000296AE8690AF066F9002363610A4AA26042
:100440000A4AE2600A4A22610A4A62602360A361A2
:10045000204638BD0020E7E7742A002078380020C5
:1004600074380020510200100000DC420000BE423F
:10047000000048430000404270B590B009AC002134
:10048000204607F021FF114D0DF1040EA446BCE8F3
:100490000F00AEE80F009CE807008EE8070000247C
:1004A00000942346F02211462846FFF747FF084EE6
:1004B000012300932346EA88A988304609F004FA0C
:1004C00031460448FFF796FF10B070BD8848002001
:1004D000DC330020E448002008B5FFF7CDFF08BD5D
:1004E0002DE9F04F2DED028BABB004F04FFBFF2157
:1004F0007A4807F08FFB7A4CFF231A4619462046AC
:1005000008F07EFE074600231A461946204608F0EA
:1005100077FEFF2300221146204608F071FE814637
:100520000023FF221946204608F06AFE824609F0A1
:10053000BCFF804609F0B9FF6A4E13AC35460FCDBB
:100540000FC495E8030084E803008DE8030013ABB3
:100550000FCB0AF099FC0146404609F0F1FF19ACB7
:1005600006F118030FCB84E80F000AF065FC014682
:10057000404609F0E5FF6FF0020623E01DAC5A4D3E
:100580000FCD0FC42B68236000931DAB0FCB0AF077
:1005900037FD044600232293239306EB4603C3EB67
:1005A000031307EE903AF8EEE77ACDED007A22AB2E
:1005B0000CCB01464D480AF0C6FD2146404609F0E5
:1005C000BFFF0136032ED9DD464C24AB04F13C02BB
:1005D00092E8030083E803000CCB414643480AF04D
:1005E000D8FD05AD44340FCC0FC50FCC0FC50FCCD3
:1005F0000FC594E8030085E803009FED3D8A06E0FF
:10060000F7EE007A38EE278A284609F074FF344C5A
:100610004946204608F0DEFD204608F094FB3946A6
:10062000204608F0D7FD10232693324B279323232F
:100630002893002329930393012302934FF0000B87
:10064000CDF804B04FF0804300934FF4A07328AA74
:1006500026A9204608F096FB5146204608F0BAFD30
:10066000224E414630460AF03AFD09F01EFF05468B
:100670004FF0FF3109F054FF072205A909F09AFF56
:10068000CDF888B0CDF88CB08DED008A22AB0CCBC4
:10069000294630460AF057FD24AB174A92E803007A
:1006A00083E803000CCB294630460AF072FD394638
:1006B000204608F08FFD294630460AF010FD2146FD
:1006C000064807F0ADFDDFED0D7AB4EEE78AF1EEF6
:1006D00010FA95D49FED068A96E700BF884800205F
:1006E000DC330020A4880110CC880110E4480020ED
:1006F00000000000046D0110E08801100000B44308
:100700000C4B03EB800253F8203083F0400303F0DE
:10071000C00302F5805CCCF80030C00000F18040DE
:1007200000F52030416002F540524FF480731360B1
:10073000704700BF048003400FB400B583B0049C31
:10074000074804F027FA3CB105A90191204604F0BE
:1007500031FA044804F01EFA012004F05DF800BFED
:10076000186D0110A0770110EFF3108072B6064BE0
:10077000D3E8CF1F01220029FAD1C3E8412F002975
:10078000F6D1BFF35F8F70475F2F00200023034A2D
:10079000C2E88F3F80F31088704700BF5F2F0020B2
:1007A000CB08C05C01F0070101238B4018400038E2
:1007B00018BF0120704770B505460C461646FFF776
:1007C000D3FFE208A95C04F0070C012303FA0CF341
:1007D000194205D1DBB20B43AB54FFF7D7FF70BD15
:1007E00021463046FFF7A8FFF8B506460D461446E9
:1007F0001F46FFF7B9FF00E00134BC420ED84FEAB4
:10080000D40C16F80C1004F0070301229A40114290
:10081000F2D1D2B20A4306F80C2001E04FF0FF34C7
:10082000FFF7B4FF002C01DB2046F8BD002DFBD004
:100830000698FFF781FF000038B505460C46FFF724
:1008400093FFE1086A5C04F007040123A3401A4205
:1008500005D022EA03026A54FFF798FF38BD034B24
:10086000034A3321034804F02BF800BF286D011020
:1008700020890110486D0110054A1078431CDBB235
:100880001370172B02D9134610221A70704700BF3D
:100890006422002000B583B00146054B00931F235E
:1008A00018220448FFF7A0FF03B05DF804FB00BF67
:1008B0008C6D0110703300204FF0E022936843F0FC
:1008C0000053936070470000002305E0044A1A4477
:1008D0000021C2E88F1F01331F2BF7D9704700BFDB
:1008E000542F0020064B9B68103043F82010BFF3B4
:1008F0005F8F00230349C1E88F3F82F31088704760
:1009000000ED00E05D2F00200048704700E400E0AB
:1009100008B5FFF7F9FF002304E04FF0803240F8FC
:10092000042B01330C2BF8D962B608BD08B5038837
:10093000DA0A1C2A06D15B050BD45B15023300EBE7
:10094000430008BD064B074A4FF48E71064803F07A
:10095000B7FF03F5FF1303F5FF531F33EDE700BFA8
:10096000A86D011058890110C06D011008B5091A51
:1009700001F2FC7240F6FE739A4208D8081F11F08B
:10098000010F04D1C0F34A0040F4604008BD034B9E
:10099000034A4FF48771034803F092FF046E01107D
:1009A0004C890110C06D01104209064B53F82230EA
:1009B00000F01F000122824003EA0200003818BF45
:1009C0000120704700E100E03AB1064B00F16002FF
:1009D00043F8221043F8201070472030014B43F8B1
:1009E0002010704700E100E008B50A4600F01F0340
:1009F000012199404009FFF7E7FF08BD00F01F0201
:100A00004009012393404030014A42F820307047AA
:100A100000E100E0024B9B68103053F82000704763
:100A200000ED00E008B5FFF7F5FF034BC01A2F28D3
:100A30008CBF0020012008BD6822002070B505464B
:100A40000C46EFF3108672B60F4BD3E8CF1F01228E
:100A50000029FAD1C3E8412F0029F6D1BFF35F8FF7
:100A6000FFF7D8FF094B984201D0A04205D132468A
:100A700021462846FFF736FF70BD054B054AED219C
:100A8000054803F01DFF00BF5D2F0020110100107D
:100A9000346E011080890110C06D01102DE9F04FF6
:100AA00087B000911546EFF3108A72B67C4BD3E8FD
:100AB000CF1F01220029FAD1C3E8412F0029F6D126
:100AC000BFF35F8F774B93F90040002C44DB8046E7
:100AD00004EB4407744B03EB870797F90610714A40
:100AE0001170724A926800F1100152F82190A9EB3E
:100AF00003022F2A3ED96E4B994534D14FF421433E
:100B0000ADF80C304FEA440904EB4400664E06EBA6
:100B1000800068490230FFF729FFADF80E004BF660
:100B20000153ADF81030FF238DF812308DF81350BB
:100B3000009B0593A14406EB890306AA12E907006E
:100B400083E8070047F00109524649464046FFF74F
:100B5000C9FE07B0BDE8F08F574B584A4FF4BE713D
:100B6000574803F0ADFE574B544A40F283115448A6
:100B700003F0A6FE29F0010BABEB0303524AA2FBE4
:100B80000312D20802EB4202B3EB820F0FD15B4695
:100B90000026DA79AA4212D993F90620002A0DDB41
:100BA00002EB42021E46404B03EB8203F1E7474B48
:100BB000424A4FF4CA71424803F082FE1E46A6B371
:100BC00044F60103ADF80C304FF48F43ADF80E300E
:100BD00096F906B0BBF1000F1ADA4BF60150ADF8EA
:100BE00010008DF812B08DF81350009B0593394614
:100BF000301DFFF7BBFEB080B47104EB44042A4BF8
:100C000003EB840306AA12E9070083E807009BE7C9
:100C1000301DFFF78BFE014604EB4402224B03EB31
:100C20008203181DFFF7A2FED9E74FF42143ADF868
:100C30000C306300019304EB4406DFF86C9009EB81
:100C400086061C49B01CFFF791FEADF80E00594610
:100C5000301DFFF78BFEADF810004AF6AA235A4666
:100C60004946521A524153431B0D8DF812308DF8EC
:100C70001350009A0592019B234409EB830906ABAC
:100C800013E9070089E8070044F60103ABF80030D8
:100C90004FF48F43ABF8023047F0010954E700BF2F
:100CA0005D2F00200F4900206822002000ED00E0A9
:100CB00011010010982200206C6E0110688901104B
:100CC000C06D0110946E0110ABAAAAAABC6E0110EF
:100CD00038B540F00104324BE31A2F2B31D8EFF333
:100CE0000581C9B2002933D0EFF3108E72B62D4BB7
:100CF000D3E8CF5F0122002DFAD1C3E8452F002DA4
:100D0000F6D1BFF35F8F4AF6AA230246244D521B49
:100D1000524153431B0D4FFA83FC234B9B6853F8FE
:100D20002130A3421BD00023032B32D803EB430115
:100D30001B4A02EB810292F90620624520D0013362
:100D4000F2E71A4B1A4A40F27F211A4803F0B8FD25
:100D5000194B174A40F28221164803F0B1FD124B9D
:100D60009B68164A43F82120154B1A78827183F844
:100D700000C000230B4AC2E88F3F8EF3108838BDB5
:100D8000074A02EB8101FF248C714BF601538B80E3
:100D9000EAE70C4B064A40F29321064803F090FD27
:100DA000682200205D2F002000ED00E0406F011060
:100DB00030890110C06D0110686F01101101001021
:100DC0000F490020746F011000B583B00146074B36
:100DD0000093052300220648FFF706FD002801DBEB
:100DE000C0F1330003B05DF804FB00BF7C6F01105D
:100DF00013490020014B0B4403607047542F00201F
:100E000010B50446FFF738FD01462046FFF7F2FF14
:100E1000FF232371BFF35F8F10BD10B50446FFF7AA
:100E20002BFD01462046FFF7E5FFFF23237100233A
:100E30006371BFF35F8F10BD10B50D4C09E00D4B12
:100E40000D4A1A210D4803F03BFD2046FFF7D8FF5D
:100E500008340B4B9C4209D22368002BF5D0012BA0
:100E6000EDD12046FFF7D9FF0834F2E710BD00BFEF
:100E7000AC280020986F0110C0890110B86F0110D4
:100E8000B4280020024B0B440360BFF35F8F704710
:100E9000542F002010B504460120FFF7FBFC01464B
:100EA0002046FFF7EFFF10BD0246EFF30583DBB2EC
:100EB000103B990804D0034803F003031360704704
:100EC0000148F9E700800B4000000B4010B4846A31
:100ED000A2EB040C0B1D50F823301B1B9C4504D3C4
:100EE000046A01238B401C4202D1043140F82120C6
:100EF0005DF8044B704741EA004070470D4B1A689B
:100F0000EFF3108172B6D2E8CFCF0120BCF1000F11
:100F1000F9D1C2E84C0FBCF1000FF4D1BFF35F8FE1
:100F20001A680023C2E88F3F81F3108840BF002079
:100F300000217047844800202DE9F04F85B003A8B8
:100F4000FFF7B2FF954B984214BF0023012303998A
:100F500001EB8303924A52F823402378994206D149
:100F6000054601228A4000F541535A602CE18D4B21
:100F70008D4A92218D4803F0A3FCD4F8149006EB1F
:100F800046074FEAC70A09EBC707D7F808B0D7F8F2
:100F90000C80284600F0B4FBB0EB0B0061EB0803BB
:100FA000002BC0F21A81B8F1000F64DB3B691A46CE
:100FB00000937F4B9A4230D0798889B2B4F9080007
:100FC000FFF799FF7969009B98470090019100997C
:100FD000019A51EA02034ED01346002A29DABBEBEC
:100FE000010268EB0308BA60C7F80C8039F90A708F
:100FF000002FC0F2F280D4F814E007EB47030EEBA9
:10100000C3039968DB68511A68EB0303002BC0F235
:10101000E480A4462CF8087F17E07A6913690092EF
:101020001046984738B3009A1368009353680193A9
:10103000CDE7284600F064FB009B1A18019B43EBA8
:101040000108D0E79C463EF90B70002F0EDBBCF97F
:10105000003003EB43034FEAC30B0EEBC303986866
:10106000D968101A68EB01010029EBDA29F80A7037
:10107000ACF80060B1E039F90A3023812369EFF35D
:10108000108272B6D3E8CF0F01210028FAD1C3E84D
:10109000401F0028F6D1BFF35F8FB4F9023029F862
:1010A0000A30668021690023C1E88F3F82F31088EF
:1010B00093E02369EFF3108272B6D3E8CF0F0121DA
:1010C0000028FAD1C3E8401F0028F6D1BFF35F8F94
:1010D000B4F804800FFA88F84FF6FF73A3802169F3
:1010E0000023C1E88F3F82F310881AE01F4630F9D1
:1010F0000A60002E0FDBB7F9003003EB43034FEA21
:10110000C30A00EBC3039968DA68BCEB01016EEB1C
:101110000202002AEADAA7F8008030F9098020F8F4
:101120000960B8F1000F5DDB606908EB48034FEA26
:10113000C30900EBC303D3F808C0D3F80CE004F1F3
:101140000807B4F90860D4E70023A37104F1080C80
:10115000B4F9083010E04FF0FF384FF0FF39C0E924
:101160000289B4F90800984205D0ACF80020B4F91F
:101170000800C85323811346B3F1FF3F35D061699E
:1011800003EB4302D70001EBC20031F9322046885D
:1011900016F4004FDFD18446EDE700BF00800B401E
:1011A0005438002048700110EC890110747001104F
:1011B000390F0010284600F0A3FA3F1A66EB01062B
:1011C000012F76F1000628DA039A01239340EB639E
:1011D000B4F90860002EBFF6D0AEA38813F4004F18
:1011E0003FF467AFA379002BAED1B4F90830002BE0
:1011F00013DB626903EB430302EBC3039F68DE6802
:10120000B6F1FF3F08BFB7F1FF3FD3D03A463346B0
:1012100003992846FFF75AFECCE740BF05B0BDE86A
:10122000F08F00BFF8B504460D4611460A4B9842B0
:1012300010D000262E44012707FA05F52562304616
:10124000FFF7FCFB39463046FFF7CEFB04F50154AF
:101250002560F8BD0426EDE700800B40F8B5044694
:101260000E4617461D46C160FFF706FB164B0344AA
:1012700023612770ABB263814FF0504212786270E5
:101280004FF6FF722281A280013B63804FF0000C79
:1012900008E00CF1FF300CEB4C0E636923F83E00C4
:1012A0000CF1010CAC45F4D3084B9E4214BF002353
:1012B000012307EB8303064A42F82340054A3946D7
:1012C0003046FFF7AFFFF8BD542F002000800B40E1
:1012D00054380020390F001008B5054B1B690BB1BD
:1012E000034808BD034B044A6521044803F0E8FAAB
:1012F000B0220020B0700110D48901107470011068
:10130000F8B504469E460069EFF3108172B6D0E846
:10131000CF6F0125002EFAD1C0E8465F002EF6D12E
:10132000BFF35F8FB4F90250666905EB4500C70053
:1013300006EBC000002D03DB36F907C0A4F802C09D
:101340004FF0000C2369C3E88FCF81F31088654507
:1013500033DB06990161079941618260C0F80CE0B6
:10136000418889B20131C1F30E0101B901214180E7
:101370002846FFF7C0FD2369EFF3108272B6D3E869
:10138000CFCF0121BCF1000FF9D1C3E84C1FBCF154
:10139000000FF4D1BFF35F8FA388F353A5802169B9
:1013A0000023C1E88F3F82F31088E368217801228F
:1013B0008A4003F501535A60F8BD4FF0FF30FBE758
:1013C00070B582B0064615461C469DF8203033B9EC
:1013D00000F0C0F9854264EB010100290ADB079B9C
:1013E0000193069B00932A4623463046FFF788FF69
:1013F00002B070BD0020FBE7F0B585B005460C4695
:1014000016461F46FFF768FF9DF8283002930197A4
:1014100000962A462346FFF7D3FF05B0F0BD0346EA
:101420004089B0EB214F31DD10B50A14586902EB49
:10143000420200EBC2001A69EFF3108C72B6D2E8D8
:10144000CF4F5FF0010E002CF9D1C2E844EF002C21
:10145000F5D1BFF35F8F428892B289B28A420FD032
:10146000002019690022C1E88F2F8CF3108830B159
:10147000DA681B780121994002F50153596010BDCB
:1014800042F40042428001209871EAE70020704750
:1014900010B50446FFF720FF2146FFF7C0FF10BD3F
:1014A00040787047F0B583B0EFF30583DBB2CBB97A
:1014B00004460D46861F41F1FF37B04271EB07032A
:1014C00001D20026374600F045F9301A67EB0103D8
:1014D000012873F1000308DA2046294600F04CF990
:1014E00003B0F0BD1848FFF727F900230093174A0F
:1014F00030463946FFF780FF002819DAECE7144B35
:101500001A68EFF3108172B6D2E8CFCF0120BCF198
:10151000000FF9D1C2E84C0FBCF1000FF4D1BFF3BA
:101520005F8F1A680023C2E88F3F81F3108820BFC5
:10153000084B5B6A9F42E2D8064A926AB242CBD21B
:101540009F42C9D1DBE700BFD4700110FD0E00102F
:101550008448002000000B4038B504460D4600F0DA
:10156000F9F8201845EB0101002902DBFFF79AFF8B
:1015700038BD4FF0FF306FF00041F7E708B5C30EFC
:101580004101091A63F100039B0043EA917389004A
:10159000091843F10003DB00C80043EA5171FFF76B
:1015A000DBFF08BDF0B583B005460C46EFF30583BD
:1015B000DBB293B1384B5B6A8B4209D3364A926AED
:1015C000824208D28B4201D0012002E0002000E0DC
:1015D000002003B0F0BD0120FBE7FFF77DFEC768E8
:1015E0000678384600F08CF82A1A64EB01010436BC
:1015F00057F826301B1A9A4271F1000112DB20BF06
:10160000254B5B6A9C4209D8234A926AAA4207D2B8
:101610009C4201D00120DCE70020DAE70020D8E777
:101620000120D6E7002300931C4A28462146FFF7F5
:10163000E3FE002818DD184B5B6A9C4205D8164A69
:10164000926AAA4202D29C4200D120BFFFF720FF3B
:10165000114B5B6A9C421BD80F4A926AAA4219D26C
:101660009C4213D00120B4E70B4B5B6A9C4209D823
:10167000094A926AAA4207D29C4201D00120A8E7F7
:101680000020A6E70020A4E70120A2E70020A0E7B1
:1016900000209EE701209CE700000B40FD0E00109B
:1016A0000048704700000B4010B50A4B1B6923B17E
:1016B0000A210948FFF79EFB10BDFFF7F1FF044622
:1016C000032100F00BF81023032221460148FFF705
:1016D000C5FDEDE7B02200208448002010B5054A82
:1016E000054C064BA04214BF1846581CFFF763F880
:1016F00010BD00BF2471011000800B407433002026
:101700000246436A906A1946536A9942FAD1704771
:10171000416A00E0416A9942FCD300E0416A994283
:1017200002D1816A9142F9D3704770B506461446DA
:101730001D46FFF7E5FF021941EB0503824273EBFB
:10174000010102D24FF0FF3213463046FFF7E0FFAF
:1017500070BD000008B50248FFF7D2FF08BD00BF0A
:1017600000000B4008B502460B460248FFF7DDFFBC
:1017700008BD00BF00000B4008B502460B460248FA
:10178000FFF7C6FF08BD00BF00000B4070B516464E
:10179000049D00EB400C4FEA8C0C0CF1804C0CF5D6
:1017A000803CDCF80420AA4201D2CCF80450A0F11D
:1017B000040E5FFA8EFEBEF1010F28D90CF54052DF
:1017C0004FF4006414601E4A52F8202042B11C4CB1
:1017D0006469B4FBF2F4013404EB4404033CFDD22D
:1017E000DCF8002082EA461202F0E0020CF5805498
:1017F0002260BEF1010F16D90CF500524FF40061C2
:101800001160CCF804500E4A42F8203070BD012916
:10181000D4D10CF5405203241460DCF8082012F0F7
:10182000010FFAD0DCE7DCF800204A4002F00302A6
:101830002260DCF8084001228A401442F9D0DBE73C
:101840007C33002010B582B04FF480340094FFF751
:101850009DFF02B010BD0000014B53F820007047FF
:101860007C33002070B5049C344DB5FBF1FC344D45
:101870001544344EB54237D8B2FBFCF5A5F1100E35
:10188000BEF5987F36D803F1FF3EBEF1060F37D87C
:1018900004F1FF3EBEF1060F32D8BCEB121F35D863
:1018A000240344EA03440368002B35DB264B9842AB
:1018B00042D00E2301229A40244B1A6003F5805334
:1018C0001A60234B9B6832EA0303FAD101608560FA
:1018D00000F540520432212313600368002BFCDA28
:1018E000C4600823136070BD1A4B1B4A11211B48AA
:1018F00002F0E6FF1A4B184A1921184802F0E0FFDF
:10190000184B154A1C21154802F0DAFF164B124AF3
:101910002321124802F0D4FF036803F03F038B42F7
:10192000C4D18368C3F30B03AB42BFD1C36803F4D4
:10193000EE23A342BAD1D6E70F23BBE7001BB700C3
:1019400080E84BD380F8A932008005400020024097
:101950000000024048710110108A011098710110B6
:10196000DC710110F871011044720110024B1A6809
:10197000024B5A60704700BF2C38002000800D4099
:1019800008B5164B4FF080421A60A3F54123144A64
:101990009A6051B103F540234FF0E0621A6048B9F4
:1019A000104B4FF000421A6008BD0C4B4FF0E06244
:1019B0001A60F4E74FF47A7303FB00F00A4B1860E7
:1019C000B0F1807F02D36FF07F421A60FFF7CEFF45
:1019D000044B4FF080421A60E6E700BF00B00D40B4
:1019E000F3FFFF0100A00D402C38002010B50C4B78
:1019F0004FF080441C6070B140F0010309480A4C6C
:101A0000C4610A4C5C40046241628362002110465A
:101A1000FFF7B6FF10BD034B0021D961F6E700BF09
:101A200000B00D4000800D40D3C007B02D3FF84FEF
:101A3000054A00EB400302EB8303596000EB4000D2
:101A40008000012313507047008010402DE9F041C1
:101A500005460E46174698460023DB8A002242E8D8
:101A600000F212F4800F0BD1102144F2522098475B
:101A7000044643463A4631462846A047BDE8F08131
:101A8000042144F2522098470446F2E708B50023A7
:101A9000DB8A002242E800F212F4800F02D110210A
:101AA000984708BD04219847FBE708B5031E04DBEF
:101AB00041F020003AB141F030010A460A214FF4CA
:101AC0008170FFF7C3FF0146F7E70000034BD3F82F
:101AD0002838002BFAD0BFF35F8F704700000E400C
:101AE000002207E0054B13449B00BFF35F8F0021EA
:101AF00019600132072AF5D9704700BF038203102D
:101B000008B5FFF7EDFF08BD074B4FF42A621A60D6
:101B10004FF48D72DA6003F50053044A1A60024BE9
:101B20005B68002BFBDA70470080044000B0FA00CD
:101B300010B5044602E054F8043B9847014B9C4220
:101B4000F9D310BDE06B01107047000008B50248E2
:101B5000FFF7EEFF08BD00BFA06B0110064B074A60
:101B60001A6003F58053064A1A60064B9A68044BC4
:101B70009343FAD1704700BF002002407F3BEFEF54
:101B8000F6FFF30300000240054BDB6CB3F5004F9A
:101B900000D07047034B4FF48022DA64F9E700BFAE
:101BA00000001150002011504FF0E022D2F8881DA3
:101BB000034B0B43C2F8883D10EE3004704700BF62
:101BC00003033000054B6FF060421A60044B9B68C2
:101BD000DB4333F06043F9D1704700BF003002406F
:101BE0000000024008B545F25320FFF74FFF0346BF
:101BF0000420984708BD08B545F25320FFF746FF7B
:101C000003460120984708BD08B5FEF75DFE08BDF4
:101C100010B50C490C4A521A92101446442A28BF97
:101C200044229200094813F0BDFF04E0084A074B24
:101C300043F824200134432CF8D9044A054B9A6018
:101C400010BD00BF000000101001001000000020B7
:101C50001101001000ED00E038B50420FFF7FCFD95
:101C6000064BA3FB0035AD0C002404E02946E0B28E
:101C7000FFF7DEFE0134052CF8DD38BD83DE1B43A3
:101C800030B583B0264B0022C3F88420FFF73CFF19
:101C9000244B0122DA63224B5B6C012BFBD1214BDD
:101CA00003221A631E4B9B6B012BFBD10224009471
:101CB00005231D4A01211D48FFF7D4FD0525009588
:101CC0002B461B4A01211B48FFF7CCFD1A4B002273
:101CD00021460420FFF7B6FD184C234600220121BF
:101CE0002846FFF7AFFD164D2B460022114608206F
:101CF000FFF7A8FD2B46002211460920FFF7A2FDA1
:101D00002346002211460620FFF79CFD23460022B1
:101D100011460720FFF796FDFFF79EFF03B030BD89
:101D20000000014000300140002F685900000540CC
:101D3000008C864700800540001BB70080D1F0086A
:101D4000006CDC0286B003B451FC0804CDE902014A
:101D500051FC0904CDE9040151EC0A04CDE9060166
:101D600003BCF047BDE800504EEC00C4BDE8005095
:101D70004EEC01C4BDE800504EEC02C400BD0000B2
:101D800000B5FFF7DFFF02E010FE30F4F8D441ECBD
:101D9000100443EC112400EE010410EE010480EE67
:101DA000200451EC1004704700B5FFF7CBFF02E0B0
:101DB00010FE30F4F8D441EC100443EC112400EE92
:101DC000010410EE210480EE200451EC3004704731
:101DD00000B5FFF7B7FF02E010FE30F4F8D410B5FD
:101DE00041EC100443EC112451EC040453EC0524A1
:101DF000A0FB024C5FF0000EE0FB03CEE1FB02CE45
:101E00004CEC20440024E1FB03E444EC30E480EE9D
:101E1000200451EC5004BDE81040704700B5FFF7B6
:101E200091FF02E010FE30F4F8D441EC100443ECD2
:101E3000112451EC2104A0FB01126FEA820252FB33
:101E4000100052FB12F252FB1000A0EBD07C53ECBE
:101E500004245CFB13F153EC1524A1FB022001FBCD
:101E6000030053EC4424A2EB000050FB1CF24FEAA9
:101E7000111312EB017043EBE27140EA515020EA7A
:101E8000915020F0070053EC7524A0FB023C53EC6A
:101E9000752400FB03CC01FB02CC53EC0424ACEB17
:101EA000824C40EA5C70A0F1010041EC400480EEFD
:101EB000200451EC7004704700B5FFF743FF02E0C7
:101EC00010FE30F4F8D441EC100480EE220410EE41
:101ED000B204704700B5FFF735FF02E010FE30F4A2
:101EE000F8D440EC700400EE010410EE210480EE02
:101EF000200451EC3004704700B5FFF723FF02E0E7
:101F000010FE30F4F8D440EC600400EE010410EE52
:101F1000210480EE200451EC3004704700B5FFF737
:101F200011FF02E010FE30F4F8D441EC800400EE22
:101F3000010410EE010480EE400410EE130470471B
:101F400000B5FFF7FFFE02E010FE30F4F8D441ECDC
:101F5000800400EE010410EE010480EE400410EE57
:101F60003304704700B5FFF7EDFE02E010FE30F4D9
:101F7000F8D441EC100443EC112400EE010410EEFF
:101F80003004C0F30070704700B5FFF7DBFE02E0DD
:101F900010FE30F4F8D443EC102441EC110400EEB0
:101FA000010410EE30F48CBF01200020704700BF08
:101FB00000B5FFF7C7FE02E010FE30F4F8D443ECA2
:101FC000102441EC110400EE010410EE30F42CBF9B
:101FD00001200020704700BF00B5FFF7B3FE02E00C
:101FE00010FE30F4F8D441EC100443EC112400EE60
:101FF000010410EE30F42CBF01200020704700BF18
:1020000000B5FFF79FFE02E010FE30F4F8D441EC7B
:10201000100443EC112400EE010410EE30F48CBFE8
:1020200001200020704700BF0000000000000000F9
:1020300000000000DB60BE284A059193F4D5097FBB
:1020400070374D7D66A5D83610E4104FEA58947F5E
:1020500058F1AEF78E1BC96DB8749390BA4B9201CC
:1020600087647482C77A873FCF694A2C7D8D20BAF6
:1020700021D1AE4B091C673A90DF17AD8E75644EC7
:102080007DCED460E21721270E4A7EEFFF25FEC7E2
:10209000036681F762C4CBFB479B82D6B39F4DDBBF
:1020A0006DC2F2C9D98FD1D38BFA97A7B1EE495D32
:1020B0005E7CF9FA7DCE41CFBAA494E2ECD7FE9AC9
:1020C0004257E34711CC8015174B02F01F054FF024
:1020D0000107AF405FEA6218A7FB00450026E7FB57
:1020E000015603EB8803D3F81090A9FB06A7D3F899
:1020F0000C90A9FB05A8E9FB6678D3F8089009FBCA
:102100000688E9FB0578A9FB04A6D3F8049009FB2F
:102110000588E9FB0478D3F8009009FB0488BF190F
:1021200048F10008704700002C20001050EA0132EE
:1021300008BF41F0004141F400210B00020070474C
:102140000BB900200021002240F20003C3F6F07317
:102150001CF0020F1CBF10461946704700220023D6
:1021600000245FF0004504E14DF804CD5FF0000C61
:102170000CF1040C02F10402FFF7A6FF98EAE879DB
:10218000B9F1807F02D2BCF1400FF1D197EAE87734
:1021900041F2A616C0F64636A9FB06A04DF211562E
:1021A000C4F67E06A7FB06A1E9FB66010626E7FB4F
:1021B000060109FB0611DCF1200A57D421FA0CF3C1
:1021C00020FA0CF201FA0AF942EA0902A2FB03948E
:1021D000A2FB0395E3FB6345A4FB0596A4FB0597CF
:1021E000E5FB6567F60856EA47764FF0AA39A6FB85
:1021F0000967D4EB070675EB45075FEA2739360B0D
:1022000056EB075659F17F6717F14057C0B4A0FB52
:102210000592A1FB0493E1FB6523A2FB0596A3FBBA
:102220000497E3FB65674FF0AA39A2FB09A40025D8
:10223000E3FB0945641955F100054FF08839A6FB09
:102240000923B4EB131465F10005B0EB940061EBC6
:10225000A501B0EB857061F10001CCF58064A4F1BB
:102260000E0400F082F9BDE8C0100CE0CCF58064EB
:10227000A4F10E0400F079F95DF804CB002640F2D9
:102280000007C3F6F0775FEAD87868F3000C5FEADE
:102290006C090FD45FEA690906D31CF0040C57EAF5
:1022A0004C713000BDE8F0879CEA9C0C51EACC717F
:1022B000BDE8F0871CF0040497EA4477C0B4A6E0B8
:1022C0003CB500F004F830BC03C40CC530BD11F0BF
:1022D000004C5FEA5C0C5CF0004C06E05FEA517C6D
:1022E0001CF0040C01E05FF0020CC1F30A53A3F2EE
:1022F000FF32B2F5806F3FF419AF12F1200FFFF6F5
:102300001FAF012363F31F512DE9F04702F10C02C7
:10231000FFF7DAFE5FEA987444F10004A8EB8478D2
:102320000CEB440C4CEAD87C97EAE87798EAE8781A
:10233000B8F5800FFFF418AF41F2A619C0F6463980
:10234000A8FB09A04DF21159C4F67E09A7FB09A10B
:10235000E8FB69015FF00609E7FB090108FB0911C9
:10236000B1F1007FFFF4FAAECA0E7C4B03EB02130F
:102370003CCB801A994110D45FEA6C0636D47610B3
:102380001CD200F06CF800F0AFF800F0ECF89CEA1A
:102390009C0C51EACC71BDE8F0875FEA6C0649D429
:1023A000761017D200F058F800F0ACF800F0D8F82A
:1023B0009CEA9C0C51EACC71BDE8F08700F04FF824
:1023C00000F0AFF800F0CCF81CF0040C51EA4C71AE
:1023D000BDE8F08700F040F800F0B2F800F0C3F874
:1023E0001CF0040C51EA4C71BDE8F08700F037F89E
:1023F000FCB400F096F800F0B3F81CF0040491EA85
:102400004471FCBC03B400F06FF800F0ACF89CEA37
:102410005C0494EA9C0491EAC4711CF0020F1DBF95
:1024200002460B4603BC0CBC1CF0804491EA4401FC
:10243000BDE8F08700F010F8FCB400F081F800F07F
:1024400092F81CF0040491EA4471FCBC03B400F05F
:1024500059F800F085F8DAE7404261EB4101A1FB51
:102460000167A0FB01237F084FEA3606F21847F107
:102470000003A3FB0076E2FB01760027E3FB016784
:102480004FF05538A6FB08964FF00009E7FB0869A6
:1024900016EB090659F10007861B71EB07074FEA97
:1024A000033040EA1250A0FB0009E9FB0809A9FB30
:1024B00001084FF03330A8FB000858FB11FA4AF628
:1024C000AA20C2F6AA2060FB1A99B2EB491273EB5C
:1024D000D9635AFB11FA4FF0C3606AFB108816EB00
:1024E000481657EBD8677047A2FB04804FF00001F5
:1024F000E3FB0401A6FB0583E7FB0534181A64EB34
:1025000001017047A2FB04804FF00001E3FB0401CE
:10251000A6FB05836442E7FB0534181844EB010170
:102520007047A2FB05804FF00001E3FB0501A6FB0D
:1025300004836D42E7FB0435181845EB0101704731
:10254000A2FB05804FF00001E3FB0501A6FB04831D
:10255000E7FB0435181A65EB01017047D02C001019
:10256000404261EB410140F2F334B1FA81F20C2AAE
:102570000CD2153211FA02F3C2F12002D04021FA36
:1025800002F12244584141EB0251704769B1C2F156
:102590002B0230FA02F3C2F120029140904019431D
:1025A000A4EB020201EB0251704701004FF0000062
:1025B000A4F12004D9D17047012767F31F5117FAFE
:1025C00003F817D0A0FB080701FB0871A1FB0678F0
:1025D0005FEAD8469219A6FB047806FB0588090332
:1025E00051EA1051D7EB003061EB0801A94238BF26
:1025F00070470BE00C33012717FA03F80FD0A0FB4C
:10260000080701FB0871A94238BF704708BFA04204
:1026100038BF7047001B61EB05010132704703F1C1
:10262000200311FA03F6D3F12003D840D9403043F8
:102630007047000000000000000000000453B108D3
:102640006018850FC8E5F22A6E07271E0D12B22109
:102650000412572F12557CBCDA30723F17A717A50A
:102660005531994E9D0DBF0AEEE0AB5FE3EF6D9CD7
:102670007636AD6F697BCCE33D62BD7EF08106822C
:10268000F3FA428F37D5B78A5313C89E7FABB32076
:10269000491570AF0000000000000000025E8815C0
:1026A0005580FF00907806B1A602FE01DC4E21F0B5
:1026B000EB88FB027A7C801F1615F8033C5DA9D1DC
:1026C00010A9F304AA466CF5C146EE05FF65E4EBDC
:1026D00009F0E70613C00C9EC3A6E007E1BFEC912A
:1026E000C46CD808D5AF5EFFDC43CF09466A72E4FC
:1026F000D72DC50A237E6E197B2CBA0BBFF57164EA
:102700008741AE0C61DFB88CB86EA10D09A9856D4B
:10271000C5B5930E3153B1086018850F3071E49838
:10272000359875105915550580FF0F0009C3EB8FBB
:1027300080FB2F00B1910E9A82F34F001FE7FD221C
:1027400087E76F00C3A09A298FD78F004F4366ACED
:102750009BC3AF00412A83A9ADABCF004FB7B41ED6
:10276000C68FEF00B6815F09E66F0F016785896646
:102770000E4C2F011A52DA3240244F01483A9B6A1C
:102780007CF86E01FF81B709C4C88E019C8DBC0B1B
:102790001895AE017010DA6B795DCE013A3BE224F8
:1027A000E921EE0138739533427FECA03114FAF53C
:1027B000BD8689916B02FAE6E0F29183E682120708
:1027C00013A85177212621686AB2736A9D0DBF0A4A
:1027D000EEE0AB5F19B4E0B71CB66A549596E53DE0
:1027E000EF07A548D1CBE555DC0E4E3CCE68ADE8F1
:1027F00039B5A432CB3CFA96D9569A28C9B21CA155
:10280000F9FCAE21864B6BE58AD2F0160453B10871
:102810006018850F02C00C9EC3A6E00700000000F0
:1028200000000000AC79CFD1F71772B1293BAAB8EC
:102830004FEAC12040F00040490043F1200340F23C
:102840000001C3F6F071C3F10B0320FA03F038BFA7
:102850007047404261F1000170475FEAD17CC1F3EB
:102860000A53A3F2FF330C2B62DA13F1200FDFDDE2
:102870002DE9F0413C4C70CC4FF00002FFF79CFE7C
:102880001CF0010F04D06FEA0202201A65EB01016F
:1028900002F2FE3C40F2FE739C455CD20A0F334BC1
:1028A00003EBC2030CCB02F03F0545F04005801A54
:1028B00099410A0E2E4B03EBC20318CB02F580722E
:1028C0005543C01AA1414A0D2A4B03EBC20318CB52
:1028D000124402F5805205FB0255C01AA1418A023A
:1028E00052EA905242F1000282FB02345B0D53EA3D
:1028F000C423C01841EB545184FB02344FF05533CC
:1029000083FB043454FB11F304EB930410EB4402F7
:1029100041EBE473E900A1FB0240C1FB0301400A63
:1029200050EBC1504FEA512151EB0C51BDE8F08101
:10293000B3F5806F07D150EA01320CBF21EAE17193
:1029400041F400217047002000211CF0010F08BF56
:10295000C7F6F07170474FF000004FF00001A8BFBC
:10296000C7F6F071BDE8F08124280010342600106D
:10297000942600102427001040F20001CFF6F071D9
:102980000020704750EA013218BF41F4002170471F
:102990007FEAA65540F019814FF4805420E18CEA7B
:1029A00011331B0640F0EE80BCF1000F67D1C90463
:1029B00051EA5031C004B1FA81F4202C4BD20125E8
:1029C000A540A0FB052301FB0533A0FB03C5A1FB2C
:1029D00002C6E1FB6356B2EB152263F10003B2EBD2
:1029E000066273EB1623A0FB06C7A1FB05C8E1FB3B
:1029F00066784FF05535A7FB05C65FF0000CE8FB85
:102A0000056C16EB0C064CF1000C12EB963243F100
:102A1000000312EB8C4243EB9C3358FB11F55FF043
:102A2000333755FB11F656FB17F8A5EB581756FB35
:102A300011F5C2F6802656FB15F507EB1537B2EBFC
:102A4000472063EBD751C4F58064A4F11504FFF768
:102A50008CFDBDE8F081B0FA80F410FA04F1A0FB1F
:102A600001234FF00000B0EB132061F10001C4F529
:102A70008064A4F13504FFF778FDBDE8F081890496
:102A800051EA90318004404261EB4101B1FA81F496
:102A9000202C4ED2013C0125A540A0FB052301FBC3
:102AA0000533A0FB03C5A1FB02C6E1FB635612EB95
:102AB000152243F1000312EB066253EB1623A0FB31
:102AC00006C7A1FB05C8E1FB66784FF05535A7FBAB
:102AD00005C65FF0000CE8FB056C16EB0C064CF12C
:102AE000000C12EB963243F1000312EB8C4243EBE5
:102AF0009C3358FB11F55FF0333755FB11F656FB4D
:102B000017F805EB581756FB11F5C2F6802656FB51
:102B100015F507EB153712EB472043EBD751C4F5FA
:102B20008064A4F11504FFF720FD41F00041BDE8E9
:102B3000F081B0FA80F410FA04F1A0FB01234FEA0F
:102B40001320C4F58064A4F13504FFF70EFD91F065
:102B50000041BDE8F0815FEA410CBFF40DAF5FEAD0
:102B60005C5C3FF409AFACF2FF3CBCF5806F3FF416
:102B700009AF012262F31F512DE9F041BCEBEC7F5C
:102B80003FF40DAF0C0C4E4D05EBC40595E80C0061
:102B900002F03F0505F14005A5FB000605FB0161BC
:102BA0006FEAE14404F01F04464D05EBC40560CD17
:102BB000521943EB060304F58074A4FB000604FBE2
:102BC00001667FEA26643FF4E3AE3F4D05EBC405A2
:102BD00022CD521843EB050341F2010505EB4404F5
:102BE0006404A4FB0050C4EBC401E4FB060180EACA
:102BF000E17481EAE175A5FB0567A4FB05487F0840
:102C00004FEA360616EB080647F100078C0254EA35
:102C1000905444F10004801B61EB070154FB14F550
:102C200055FB14F655FB15F74FF0553456FB14F6CB
:102C3000B6EB173610EB860041EBA671101A63EB6A
:102C40000101224A24CA1CF1010C0BDDA2FB0C235A
:102C50000024E5FB0C34121A8B4164F100045FF090
:102C600080410CE0DCF1000CA2FB0C230024E5FB0E
:102C70000C3482184B4144F100045FF040414CB9E0
:102C80001C0013000022B1F100711CB91C000023CC
:102C9000B1F10071B4FA84F5A5F11D06A1EB06515E
:102CA000AC4013FA05F0C5F12005EB401C43EA40A7
:102CB0001043C00A50EB445041EBD421BDE8F081F1
:102CC0002427001094260010242700102428001028
:102CD0000B5C7325A974F50329B5FA010015FC7F77
:102CE000EB2FAA0054D9440CC8D221061F60DA7F0A
:102CF0003663E842CFD3D9133C5EEA09F0889D7F62
:102D00002FC46D04D9860A1C1F17FE0DD09E3B7F71
:102D1000A79B50EC3EF5EB23BCE7E611C7EFBD7E69
:102D2000D21C9C03B212F12B46F5DC1549771E7EAE
:102D3000CA057A3DF493F23314C0CB199CAC5F7D85
:102D4000A0A0EF7A1D32193C1D22C61D2F2F7D7CBD
:102D5000B50FFB1270EF5044530CC1213522787B24
:102D60005C8D6B4745A0F14B18DC6A2516AD687A7F
:102D7000C14069576DD9EA53391636293C2D2F7950
:102D8000DFEA4ED38942B35BD639E02C2526E077C3
:102D90006950EA31D9071164C0D3C43070625876E3
:102DA000CB5667F3B3A2FD6B1C7E6834227AC774DE
:102DB0000EED7A2F3175E073CCE7FA3727111C73CB
:102DC000C08EC4FC0E79147C0EA7A33B8ECD41713E
:102DD00013B7043B8F7B5483D489D23EEBD8856FE5
:102DE0009A365B13D96F0B8CD4EA9442A3EF516DE2
:102DF0005F52CA4A26D33994706E0A464005236B47
:102E00008340C441340B0E9C3DB0484907EFF16844
:102E1000BF086DA3FD6179A485F2B14C9D847A66EB
:102E20003616F8C8D247E5AB1E22A24F2F62366491
:102E3000ADC9C8D0E1ADFEB32470C35286AFA46162
:102E4000730E73646A35FEBB28F0C555A3A3025FF9
:102E5000C6A58CB055B912C40892BA58A394415C67
:102E600090005354372DB0CB19F46E5BD88E935924
:102E7000367C8DA16E3CAAD325022E5EFC32AF5665
:102E8000D0C7A248F619FFDB3253F3607EED9253B0
:102E9000949AAD7AE1AD22E4CADF8E63C72B7350FA
:102EA000FF15EF19BD85FBEBBB18FA65C7615C4DDB
:102EB000BD960F7E494B4CF4F7816F68E617024AC6
:102EC000EB09EF1DFDBD4DFCC4D2B26A13E4B4465C
:102ED000C0F3C7536BB17F3B0DD4C3F11703002B75
:102EE0000BDD012202FA03F3013B034207D1104636
:102EF0007047012070470020704701207047002074
:102F00007047C0F3C7537F3B0DD4D3F117030CD4E4
:102F100001229A40013A024209D1172B09D0D84028
:102F200000F001007047002070470020704700202B
:102F300070470120704710F0FF4308D0B3F1FF4FF6
:102F400007D0C0F31600B0FA80F0400970470020A7
:102F500070470020704738B50546012911D00C464E
:102F600001EBD1714910FFF7F6FF07EE900A67EE0B
:102F7000A77A14F0010F06D007EE105A67EE877A91
:102F800001E007EE900A17EE900A38BD08B5002957
:102F900002DBFFF7E0FF08BDF7EE007A07EE100A4C
:102FA000C7EE877A17EE900A4942F2E770B50E46EF
:102FB00013F0AEFDFFF7CFFD04460D46304613F08B
:102FC000A7FD02460B4620462946FEF705FFFFF700
:102FD00044FCFEF775FF70BD2DE9F0410F46044635
:102FE000C60F12D00846FFF78CFF40B1394604F1F6
:102FF0000040FFF7F1FF00F10040BDE8F0813946E5
:1030000004F10040FFF7E8FFF7E707EE901AFDEE46
:10301000E77A17EE908AFFF78EFF58B9B8F1000FE4
:103020002BD008F12003402B22D939462046FFF748
:10303000BDFFE2E7C4F3C7547F3CB8F1FF0F05DCE6
:1030400018F5807F04DA6FF0FF0801E04FF0FF0809
:1030500004FB08F404F17F03002B07DDFE2B03DCE7
:10306000E40504F17E5601E04FF0FF463046C4E728
:1030700041462046FFF78AFFBFE74FF07E50BCE78E
:1030800038B52DED028B08EE100AF7EE007AB4EE9B
:10309000678AF1EE10FA1DD00C460B4611F0FF4284
:1030A00018D0FFEE007AB4EE678AF1EE10FA02D182
:1030B000B2F1FF4F5ED018EE105A15F0FF4F18D145
:1030C000002B0CDB2046FFF71CFF002855D018EE24
:1030D000100A01E04FF07E50BDEC028B38BD204657
:1030E000FFF70FFF00284AD005F0004040F0FF40F6
:1030F000F2E7EA0DFF2A13D040F2FF118A4213D003
:10310000DB0DFF2B1FD040F2FF118B4220D0204659
:10311000FFF7DEFE10BB002D26DA4FF0FF40DBE7A5
:10312000002B2FDA0020D7E7002B05DB2046FFF726
:10313000E8FE50B31A48CFE72046FFF7E2FE38B367
:103140004FF00040C8E7D2B27E2A23DC0020C3E75C
:10315000D2B27E2A21DC4FF0FF40BDE7214618EEB7
:10316000100AFFF739FFB7E7214618EE100AFFF7FC
:103170001DFFB1E74FF07E50AEE70020ACE74FF007
:10318000FF40A9E74FF0FF40A6E74FF0FF40A3E75D
:103190000020A1E74FF0FF409EE700209CE700BF22
:1031A000000080FF000000000000000000000000A0
:1031B000DB60BE284A059193F4D5097F70374D7DB9
:1031C00066A5D83610E4104FAFF224024B1102EB83
:1031D000830201F01F034FF001049C40A4FB003464
:1031E000D568A5FB0456956805FB0466E5FB035608
:1031F000556805FB03667047410201D150F000405D
:1032000050F480007047F0B5012363F3DF50C1F143
:1032100009014FF07E07FFF7D7FFB30F53F100030B
:103220009C44B6EB8376B20028BF5242B2F1805F75
:103230000BD20231FFF7C8FF96EA260242F10002E4
:10324000B2F1805F01D2023FF3D50A4CA2FB042405
:10325000B4FA84F29440240AA7EB020244EBC25071
:10326000C10DD1F17F01F60F00EBC673BDE8F04050
:1032700073E00000A2DA0FC911F1800FBCD030EA70
:10328000CC7248BF0CF1020C20F0004000EE100A96
:103290000DA2F2EC032A22EE802A11F1080FB9FEEA
:1032A000422AB0DDA2EE630AA2EE430A10EE103A03
:1032B000FDEEC21AC3F3C752782AA4D3D2F17F011C
:1032C00011EE902A944448E083F9223F7A7795B62C
:1032D0000010C93F07B5C0F3C751FF2925D000F042
:1032E00032F8BDE80640CEF800000ED2C9438CEAA1
:1032F000D17C63EEA02AE1EE032A73EE622A12EE7D
:10330000900A80EACC70106000BD8CEAD17C21EE7E
:10331000232AA3EE602A8CEAD37133EEC22A12EE7E
:10332000100A80EAC170106000BD4102BDE80E4085
:1033300001D150F0004050F48000106018607047D8
:103340005FF0000C01E05FF0010CC0F3C751A1B3C6
:10335000D1F17F0190D920EACC7323F0004000EE38
:10336000100AC0F38440203030FA01F1834A51F151
:103370000001B2EC024A02EB810202EBC102D2EC84
:10338000032A70EE620A20EEA01A5FEA5C0C61EE7E
:10339000201A15D221EE041A61EEA41A70EEE10A89
:1033A00021EE232AA3EE602A8CEAD37133EEC22ADF
:1033B00012EE100A80EAC170704700F00040C7E7C3
:1033C00061EEA41A70EEE10A21EE041A63EEA02A5F
:1033D000E1EE032A73EE622A12EE900A80EACC70C4
:1033E000704700BFAFF30080C1FEFF3E25AA2A3E12
:1033F000000000000000803F0000000061C9FC3CAC
:10340000CDE07F3F1CBFFC3C7605813DFE7D7F3FCC
:103410009EEF803D090CBF3D0FE37E3F22C5BE3DC0
:10342000B624FF3D14047E3FE27BFE3D13071F3EA2
:1034300048EB7C3FA0631E3E6D30403E1D817B3FCC
:1034400015103F3EA2AD603ECFDC793F3EE15E3ECF
:103450007B0D803EFA08783F96717D3E6E988F3ED8
:1034600065FF753F68B88D3EF4E19F3E939E733FC4
:10347000FD4B9D3EC654B03EAEF7703FB3DDAC3E53
:10348000C589BF3E604B6E3F0A1ABB3E26C4CF3E85
:10349000CA356B3F631CCA3EF254E03E66D1673FBB
:1034A0000739D93EDDF0EF3E4B66643F1641E73EFB
:1034B000312B003F8894603F0FC3F53E07E4073F80
:1034C000A2C55C3F2B99013FC51F103F8F7D583F20
:1034D00065A1083F8AF6173FB534543FCA310F3F04
:1034E000E2FF1F3F599B4F3FD7C8153F4606283F75
:1034F0006BCF4A3FC4371C3F4130303FE0B9453FB6
:10350000E49A223FA71D383FCA98403F20A6283F93
:103510002FC73F3FAC763B3F4A562E3FDB13483F19
:10352000CCB6353F6B52343F79C74F3F2F35303FD4
:10353000D0B4393F52DD573F70412A3F912D3F3F74
:1035400026CE5F3F9F3E243FC35D443FF125683F49
:1035500050C21D3F1C9D493FE13B703F4150173F0A
:10356000BF7E4E3F7810783F71ED103FAF06533F5E
:10357000D4F47F3FA75A0A3F9B64573FE8330010BB
:1035800008B528B103460B44034A934200D808BD4E
:103590000248FDF7D1F800BF00000820607201105A
:1035A00038B5054610F090FB04462946FFF7E8FFC2
:1035B000204638BD38B50D4610F05EFE044629465B
:1035C000FFF7DEFF204638BD08B510F085FB08BDCB
:1035D00008B5FFF7E5FF08BD08B5FFF7E1FF08BD37
:1035E00008B5FFF7F1FF08BD08B5FFF7EDFF08BD0F
:1035F0009A4200D288547047704720B108B50A68D3
:103600004968904708BD70470146002008E000EB7C
:103610008000531C0B60137803EB4003A3F13000D0
:103620000A681378303BDBB2092BF0D970472DE9DB
:10363000F04F83B005460E4693461F46DDF830A096
:103640000D9CDDF838900F9B13F0030F19D1A046A5
:10365000019208E002F1010B3B4631462020A847C9
:1036600008F101085A46C845F4D3DDF804B008E073
:10367000013C02F101083B4631461AF80400A84714
:103680004246002CF4D10F9B13F0020F09D11046D3
:1036900003B0BDE8F08F541C3B4631462020A847BC
:1036A0002246A2EB0B034B45F5D3F0E72DE9F0439F
:1036B00085B099460C9D0D9C9DF83880DDF840E062
:1036C000119F129E16F0020F21D17FB116F0010F4B
:1036D0000CD0B8F1000F02D116F00C0F06D0013F4C
:1036E00004E04FF0300C05F804C00134744501D2F9
:1036F0001F2CF6D916F0010F09D0BC4207D21F2C9F
:1037000005D84FF0300C05F804C00134F2E716F08C
:10371000100F14D016F4806F04D11CB1744522D060
:10372000BC4220D00F9B102B33D00F9B022B3DD0DF
:103730001F2C0ED84FF0300C05F804C001341F2C9C
:1037400007D8B8F1000F39D04FF02D0C05F804C0A0
:10375000013403960297019400954B46FFF767FFEB
:1037600005B0BDE8F083B4F1010C1DD00F9B102B08
:103770000ED064460F9B102BD7D116F0200FD4D05B
:103780001F2CD2D84FF0580C05F804C00134CFE7F5
:10379000023C16F0200FEDD11F2CEBD84FF0780C27
:1037A00005F804C00134C3E76446BBE71F2CD0D83A
:1037B0004FF0620C05F804C00134B9E716F0040FAD
:1037C00005D04FF02B0C05F804C00134C1E716F00A
:1037D000080FBED04FF0200C05F804C00134B8E744
:1037E000F0B591B0169C189D1B9E0CB926F01006E2
:1037F00016F4806E1DD064B34FF0000E19E016F081
:10380000200F24D04127BC445FFA8CFCACF10A0C99
:103810005FFA8CFC0EF101070EF1400EEE440EF83B
:1038200020CCB4FBF5FCAC4214D31F2F12D8BE46FB
:103830006446B4FBF5FC05FB1C4C5FFA8CFCBCF148
:10384000090FDCD80CF1300C5FFA8CFCE2E7612741
:10385000D9E7274606961A9C0594199C049403956B
:103860009DF85C400294019708AC0094FFF71EFF9E
:1038700011B0F0BD2DE9F04F95B009900A910B926F
:103880009846DDF878B0DDF87C90229D239F269E37
:103890005BEA090201D126F0100616F4806424D0F8
:1038A0005BEA09022FD000241FE016F0200F28D079
:1038B00041231344DBB20A3BDBB204F1010A04F1F9
:1038C00050020DEB020404F8203C2A463B465846C1
:1038D000494613F02DF9AB4579EB070915D3BAF139
:1038E0001F0F12D85446834689462A463B465846FF
:1038F000494613F01DF9D2B2092AD6D83032D3B2D4
:10390000DBE76123D5E74FF0000A0696259B059378
:10391000249B049303959DF880300293CDF804A076
:103920000CAB009343460B9A0A990998FFF7BEFE29
:1039300015B0BDE8F08F00002DE9F04F93B00446BC
:103940000D4617461E46DDE91CAB52465B46504607
:103950005946FEF70BFB002840F0F3804FF0FF3292
:10396000AD4B50465946FEF74FFB002840F0E9802A
:103970004FF0FF326FF4801350465946FEF708FBB4
:10398000002840F0DE800022002350465946FEF712
:10399000FFFA002840F0E680CDE906AB209B13F447
:1039A00080630F9301D106231E93DDE906231046A1
:1039B0001946CDE90A01079B52EA030100F0DC80B9
:1039C000C3F30A50C3F31303904643F07F5949F4FD
:1039D0004019A0F2FF30FEF781FA7DA3D3E900235E
:1039E000FEF7FAF97CA3D3E90023FEF7CDF9CDE980
:1039F00008010022894B40464946FEF7D9F978A3D1
:103A0000D3E90023FEF7E8F902460B46DDE9080199
:103A1000FEF7BAF9FEF786FA0890FEF75FFA8046DD
:103A2000894671A3D3E90023FEF7D6F900227C4B27
:103A3000FEF7AAF9FEF776FA0A906DA3D3E9002300
:103A400040464946FEF7C8F9804689460A98FEF77F
:103A500045FA69A3D3E90023FEF7BEF902460B46F7
:103A600040464946FEF7A4F98046894602460B4681
:103A7000FEF7B2F9CDE90C010A9B03F2FF330021F6
:103A80000022CDE90A121B050B9300230A9342463C
:103A90004B4640464946FEF777F9CDE910014246CC
:103AA0004B4600204FF08041FEF782F98046894660
:103AB00000225C4BDDE90C01FEF7B4F900225A4B01
:103AC000FEF762F902460B46DDE90C01FEF7AAF9A2
:103AD0000022564BFEF758F902460B46DDE90C0171
:103AE000FEF7A0F902460B4640464946FEF74CF960
:103AF00002460B46DDE91001FEF794F900224C4B1B
:103B0000FEF742F9DDE90A23FEF766F980468946A9
:103B1000CDE90A89DDE90623FEF776FA50B1089B64
:103B2000013B08930022404B40464946FEF77AF994
:103B3000CDE90A01089B6333C62B46D84FF0040831
:103B40001EE0209B04931F9B03931E9B0293CDE9D1
:103B500000AB33463A462946204600F0FDF813B044
:103B6000BDE8F08F9FED267B8DED067BCDF818A08C
:103B70000BF10043079311E7002308934FF004086B
:103B8000209B13F4006F5FD0DDE90A1213460B434C
:103B900013D01DA3D3E90023DDE90601FEF720FAC7
:103BA000002800F0B4801AA3D3E90023DDE9060160
:103BB000FEF7EEF9002800F0AA801E9A089B9A42B0
:103BC00038DDD31A013B1E9336E04FF00508D7E7E6
:103BD000FB799F501344D33FB3C8608B288AC63FFC
:103BE00061436F63A787D23F71A379094F930A405E
:103BF0001655B5BBB16B0240EF39FAFE422EE63FD7
:103C000000000000000000002D431CEBE2361A3FCC
:103C10000000000080842E41FFFFEF7F0000F83F8E
:103C20000000E03F00002C4000002440000018404D
:103C30000000F03F00231E93209B43F480632093F9
:103C40004FF00008CDF820801F9B984569D2A3EB68
:103C50000809209B13F002030C9304D0B8F1000F65
:103C600001D04FF00009089B3BB1DDE90A23DDE9F3
:103C70000601FEF7D7F8CDE90601002200235046E1
:103C80005946FEF785F900284ED1209B23F40063A6
:103C90000493CDF80C901E9B02939DED067B8DED59
:103CA000007B33463A462946204600F055F8B8F1E5
:103CB000000F3FF454AF209B13F0200F3CD04FF087
:103CC000450C00F101093346024629466046A047EB
:103CD000089981EAE172A2EBE1720523059308F1EC
:103CE000FF330493002303930A230293CB0F019322
:103CF000009233464A4629462046FFF771FD0C9B49
:103D0000002B3FF42CAF0246DDF87C901EE01E9B9A
:103D1000002B99D00F9B002B96D01E9B013B1E932E
:103D200092E74FF0000994E7DDE90601024601F150
:103D30000043CDE90623A8E74FF0650CC1E702F187
:103D40000108334629462020A0474246D31B4B4555
:103D5000F5D3104603E700BF2DE9F04F2DED028BA0
:103D600095B007900A9192469B46DDE92089229DF5
:103D700042464B4640464946FEF7F8F8002835D102
:103D80004FF0FF326FF4801340464946FEF700F9CA
:103D900000283AD14FF0FF32B14B40464946FEF77A
:103DA00033F9002840D1AAA3D3E90023404649466D
:103DB000FEF72AF900284DD1A7A3D3E900234046F6
:103DC0004946FEF7E5F8002844D10022002340468A
:103DD0004946FEF7DDF800284AD100230B93249BC7
:103DE00013F4806F00F0B580002454E0249B03930B
:103DF000239B0293032301939A4B00935B46524605
:103E00000A990798FFF713FC1BE1249B0393239B5C
:103E1000029304230193944B00935B4652460A9904
:103E20000798FFF704FC0CE1249B13F0040F0ED05D
:103E30008E4B0422249903912399029101920093BD
:103E40005B4652460A990798FFF7F1FBF9E0884B69
:103E50000322EFE7249B0493239B03930295CDE970
:103E600000895B4652460A990798FFF765FDE8E02E
:103E700042464B4600200021FDF79AFF80468946C6
:103E800001230B93ABE704F150036B44302203F89A
:103E9000202C013D01341F2C01D8092DF3D84046B8
:103EA0004946FEF73FF80646FEF718F802460B466D
:103EB00040464946FDF77CFF6E4B03EBC50393ED8F
:103EC000008B53EC182BFDF787FF02460B46CDE91C
:103ED0000823FEF739F80746FEF712F802460B46AC
:103EE000DDE90801FDF764FF02460B46CDE9082332
:103EF0000022614BFEF788F868B301373846FDF7BA
:103F0000FFFF02460B4651EC180BFEF755F808B1BF
:103F1000013600276DBB3046FDF7E0FF02460B4639
:103F200040464946FDF744FF074688460022524B6B
:103F3000FEF72EF800284CD100224F4B3846414660
:103F4000FEF762F8002844D116F0010F41D0013687
:103F50003FE0062548E70022474BDDE90801FEF770
:103F600017F80028D6D117B117F0010FD2D00137BA
:103F7000D0E71F2C17D8013D404BA3FB0723DB08DC
:103F8000194603EB8303A7EB4303621C303304F1B0
:103F900050000DEB000404F8203C092F02D90F4615
:103FA0001446E6E714461F2C0AD86B1E45B104F1EF
:103FB00050026A44302102F8201C1D460134F2E709
:103FC0001F2C06D804F150036B442E2203F8202C3A
:103FD00001341F2C17D82A4A82FB0632F317C3EB91
:103FE000A2031A4603EB8303A6EB4303611C3033A1
:103FF00004F150000DEB000404F8203C16460AB111
:104000000C46E6E70C46249B03F00303012B39D052
:104010001F2C09D80B9B002B51D004F150036B448B
:104020002D2203F8202C0134249B0393239B02931D
:1040300001940CAB00935B4652460A990798FFF730
:10404000F6FA15B0BDEC028BBDE8F08FAFF300803F
:104050000000000065CDCD410000000065CDCDC160
:10406000FFFFEF7FC8720110CC720110BC7201100B
:10407000C4720110808A01100000E03FCDCCCCCC8E
:1040800067666666239BB3B10B9B1BB9249B13F039
:104090000C0F12D0239B013B2393194606E004F139
:1040A00050036B44302203F8202C01348C42AFD2F1
:1040B0001F2CF4D9ACE72399F8E72399F6E7249B62
:1040C00013F0040F07D004F150036B442B2203F8C4
:1040D000202C0134A8E7249B13F0080FA4D004F18E
:1040E00050036B44202203F8202C01349CE700BFCE
:1040F0002DE9F04F8FB0804617460D938946002971
:1041000000F04F83002508E06C1C3B462A464946D8
:10411000C0470D9B01330D9325460D9B1878002851
:1041200000F042832528EFD101330D9300261FE0D4
:1041300046F0010601320D92012318E046F0020616
:1041400001320D92012312E046F0040601320D9275
:1041500001230CE046F0080601320D92012306E02F
:1041600046F0100601320D92012300E000234BB30C
:104170000D9A1378203B102BF8D801A151F823F0A9
:10418000554100106D4100106D410010614100105B
:104190006D4100106D4100106D4100106D41001027
:1041A0006D4100106D4100106D410010494100103B
:1041B0006D4100103D4100106D4100106D41001037
:1041C000314100100A930D9B1A78A2F13003DBB243
:1041D000092B18D92A2A1BD00A9B0B930D9B1A78FE
:1041E0002E2A25D00D9A1378683B122B5CD8DFE875
:1041F00003F0495BAC5B3B5B5B5B5B5B5B5B575BB7
:104200005B5B5B5BB1000DA8FFF7FEF90B90E5E788
:10421000189B1A1D18921B68002B04DB0B930D9B37
:1042200001330D93DAE746F002065B420B93F6E7A3
:1042300046F480665A1C0D925A78A2F13003DBB224
:10424000092B0CD92A2ACDD1189B1A1D18921C684B
:1042500024EAE4730A930D9B01330D93C2E70DA882
:10426000FFF7D2F90A90BDE746F48071531C0D9315
:1042700053786C2B01D00E4616E046F4407602329D
:104280000D9211E046F08001531C0D935378682B7A
:1042900001D00E4608E046F0C00602320D9203E05F
:1042A00046F4807601320D920D9B1878672856D817
:1042B0002528C0F06C82A0F12503422B00F2678212
:1042C000DFE813F05A0265026502650265026502C5
:1042D00065026502650265026502650265026502A6
:1042E0006502650265026502650265026502650296
:1042F0006502650265026502650265026502650286
:10430000650265028801680188016502650265022F
:104310006502650265026502650265026502650265
:10432000650265026502650265027100650265024B
:10433000650265026502650265026502650271003B
:10434000AF01710088016801880146F400760132EE
:104350000D92A9E746F4807601320D92A4E7782801
:1043600000F215826928C0F01282A0F16902D2B26F
:104370000123934049F24102134214D113F0800FFC
:1043800040F0DF8113F4806F00F00182189B1A1D4A
:104390001892D3F800A00A9B002B40F090814FF0B8
:1043A000FF32534674E16F283DD005D858283CD0E1
:1043B000622803D1022304E0782838D026F01006C2
:1043C0000A23582835D0692803D0642801D026F064
:1043D0000C0616F4806F01D026F0010669282BD058
:1043E000642829D016F4007F40F0968016F4807F70
:1043F00040F0AE8016F0400F00F0BF80189A111DFB
:104400001891127805960B9904910A9903910293D9
:104410000023019300923B462A4649464046FFF757
:10442000DFF9054629E00823CBE71023C9E710236D
:10443000C7E746F02006C6E716F4007F21D116F440
:10444000807F42D116F0400F58D0189A111D189154
:10445000127882EAE271A1EBE27105960B98049062
:104460000A9803900293D20F019200913B462A468C
:1044700049464046FFF7B4F905460D9B01330D93BD
:104480004BE6189A073222F0070202F10801189150
:10449000516812680846002913DB08960B9C0794A4
:1044A0000A9C0694049300230593C90F029100927D
:1044B00001903B462A4649464046FFF7DBF9054650
:1044C000DBE7524261EB4100E7E7189A111D1891B2
:1044D000126882EAE271A1EBE27105960B980490F2
:1044E0000A9803900293D20F019200913B462A460C
:1044F00049464046FFF774F90546BEE716F0800FBF
:1045000005D0189A111D1891B2F90020A1E7189A48
:10451000111D189112689CE7189A073222F00702C1
:1045200002F10801189108960B9907910A990691D2
:104530000021049305910291D2E90023CDE90023E3
:104540003B462A4649464046FFF794F9054694E71C
:10455000189A111D189105960B9904910A990391C7
:10456000029300230193136800933B462A46494671
:104570004046FFF735F905467FE716F0800F04D077
:10458000189A111D189112883CE7189A111D18915C
:10459000126837E746281AD0189B073323F0070321
:1045A00003F10802189204960B9A03920A9A029257
:1045B000D3E90023CDE900233B462A46494640463D
:1045C000FFF7CAFB05460D9B01330D93A5E546F0A9
:1045D0002006E1E7672801D0472801D146F40066AC
:1045E000452801D0472801D146F02006189B073303
:1045F00023F0070303F10802189204960B9A039222
:104600000A9A0292D3E90023CDE900233B462A46C9
:1046100049464046FFF790F905460D9B01330D933F
:104620007BE516F002061CD001241898031D189390
:1046300005F1010A3B462A4649460078C047AEB913
:104640000D9B01330D93554667E5551C3B46494686
:104650002020C04723462A465C1C9A45F5D81546BB
:10466000E3E70123DDF82CA02A46F5E75246DDF802
:104670002CA006E0561C3B4649462020C0472C464D
:104680003246651CA245F5D89246D9E701330A4661
:10469000197811B1511E002AF8D1A3EB0A0316F4C0
:1046A000806B03D00A9A934228BF134616F0020487
:1046B00007D00C940A9E2A465D469B4623E00A9A40
:1046C0006FE6CDF830B02A4625460B9C07E002F194
:1046D000010B3B4649462020C04733465A465E1CE4
:1046E0009C42F4D8DDF830B02C4633460C940A9E38
:1046F0005D469B4607E01E460AF1010A541C3B46F4
:104700004946C04722469AF8000020B1002DF3D058
:10471000731E002EEFD10C9C15465B461CB90D9BF9
:1047200001330D93F9E40B9E06E0551C3B464946C8
:104730002020C04723462A465C1C9E42F5D81546D9
:10474000EDE746F02106189B1A1D18921B68059686
:10475000082204920A9A03921022029200220192E5
:1047600000933B462A4649464046FFF739F805463E
:104770000D9B01330D93D0E46C1C3B462A46494601
:104780002520C0470D9B01330D932546C5E46C1CC5
:104790003B462A464946C0470D9B01330D932546AB
:1047A000BBE4DFF82080ADE4BD4208D37A1E3B466F
:1047B00049460020C04728460FB0BDE8F08F2A4682
:1047C000F5E700BFF93500100EB400B584B001461E
:1047D00005AA52F8043B039200924FF0FF320448BE
:1047E000FFF786FC04B05DF804EB03B0704700BF30
:1047F000F135001000B585B0029003910093134687
:104800004FF0FF3202A90348FFF772FC05B05DF8D4
:1048100004FB00BFFB35001000BEFDE70346094A5C
:10482000126842B1074A10680344074A934206D807
:10483000044A13607047034A04491160F2E74FF0DD
:10484000FF30704724340020000008201449002065
:10485000002070474FF0FF307047000008B538B9AE
:1048600008461146044BD3E9002300F035F908BD92
:104870004FF0FF30FBE700BF088A0110431E012BF9
:1048800009D810B50846144601230022214600F03D
:10489000DDF8204610BD4FF0FF3070474FF0FF307D
:1048A00070474FF0FF3070474FF0FF3070470228DD
:1048B0008CBF00200120704708B5FFF7ADFF000056
:1048C00000B583B08C4619465AB11446064B019484
:1048D000009363460246054800F08CF90120FFF77B
:1048E0009BFF034B1C46F2E7D4720110E4720110E7
:1048F000E072011010B5EFF30583DBB203B100BE27
:10490000FDF724F9044C02E054F8043B9847034BAC
:104910009C42F9D310BD00BFE06B0110FC6B01108D
:1049200008B5034608461B681146984708BD0000B5
:10493000F8B507460D461646437D13B100242046C0
:104940000CE003681146284698472EE03B7D10E0B6
:104950003B68022115489847601C0134B44214DAC0
:10496000002CF3DD2B1913F8013C0D2B14BF002391
:1049700001232A5D0A2AF0D1002BEED1A042E7DA0A
:104980003B68211A28449847E2E7B04203DA3B68C3
:10499000311A28449847002E07DD354415F8013CAC
:1049A0000D2B14BF002301233B75F8BDD08A0110E5
:1049B00038B50368BBB105460B4B1C6806E02946B9
:1049C00051F8042B2046FFF7B3FF24694CB123684C
:1049D000002BFAD0054B1B68002BF0D0A342F4D17A
:1049E000EDE700232B6038BDCC330020D833002006
:1049F00038B505460C460B68802B05D023685A1C39
:104A000022601C44257138BD0846FFF7D1FFF5E749
:104A100008B5FCF79FFE074A821841F10003002BFE
:104A200003DB054812F0A0F808BD4FF0FF326FF02D
:104A30000043F6E740420F00AC28002008B50248CA
:104A400012F07AF808BD00BFAC2800202DE9F04331
:104A500083B006460D4690461C46FFF7D9FF8146B7
:104A6000B5F1FF3F04D044B1174F184B1C6807E065
:104A7000304611F00DF90546F5E7154FF5E72469C5
:104A8000BCB12368002BFAD0124B1B680BB1A342B8
:104A9000F5D12A4631462046B847B8F1000FEED08E
:104AA0000A238DF8073001220DF107012046B8478F
:104AB000E5E7B9F1000F03D1284603B0BDE8F08364
:104AC000FFF7BCFFF8E700BF31490010CC330020EE
:104AD00021490010D83300202DE9F84307460E463F
:104AE00091469846144B1C6807E0A36823B13146F1
:104AF0003846984700281CDC246934B10F4D2D68D6
:104B0000002DF2D0A542F7D1EFE70D4B5B6A984537
:104B100008D80B4A926A4A4509D2984502D06FF0EC
:104B2000010006E001200021FCF71CFEDAE76FF02F
:104B30000100BDE8F88300BFCC330020D83300204B
:104B400000000B40094A136802E003F110021B69E0
:104B500043B113688342F8D131B90369136000236C
:104B60000361704701B11060704700BFCC33002073
:104B700010B5054B1C6800E0246924B16368002B64
:104B8000FAD09847F8E710BDCC33002008B500F004
:104B9000ADF908BD38B5054611F07AF80446012391
:104BA0001A4601462846FFF751FFFFF7E1FF20466E
:104BB00038BD0000F0B5A3B004460E46FFF728FF4D
:104BC00005460023019301AF334622463946084883
:104BD000FFF710FE04463846FFF7EAFEFFF7C8FF6E
:104BE00015B9204623B0F0BDFFF728FFF9E700BF55
:104BF000F14900100FB400B583B004A951F8040BBB
:104C00000191FFF7D7FF03B05DF804EB04B07047E4
:104C100070470000014B00221A70704710490020B5
:104C20004B79FF2B0BD18B795BB9CB79012B0AD157
:104C3000082A0AD98A78064B1A7009207047002082
:104C4000704700207047002070470020704700BF69
:104C50001049002001207047012923D108B591880F
:104C6000114B1B78994201D0002008BD5378012BCD
:104C700003D0022B0FD00020F7E7518811F4807F7A
:104C800006D0480AC1F3402201F07F01FCF70DFF76
:104C90004FF0FF30F6E7642200210846FCF7A6FE3D
:104CA0000120E2E7012070471049002000487047CA
:104CB0009C8B011001290FD108B594465378012B24
:104CC0000CD19388072B01D0002008E0A623044ACA
:104CD000614601F0EFFB02E001207047002008BDB3
:104CE000F48A01100123037000487047D48A011030
:104CF00008B50B68B3F5966F00D008BD00221146C9
:104D00004FF0FF30FCF7D1FE024B1860024B1960E8
:104D1000704700BF683300206C33002008B5FCF7F3
:104D200019FD0E4A821841F10003002B11DB0C48DB
:104D300011F01AFF60B100214FF0FF3001F042FA8C
:104D4000002001F03BFD0028F5D1054811F0F4FEEC
:104D500008BD4FF0FF326FF00043E8E740420F001C
:104D6000C848002038B5184B1B681BB3EFF31082FE
:104D700072B6D3E8CF0F01210028FAD1C3E8401F53
:104D80000028F6D1BFF35F8F0F494A6000230F4818
:104D900003700968C1E88F3F82F310880024002562
:104DA0000B4B1878FBF700FE40B900240025204685
:104DB000294638BD4FF47A740025F1E7044B187882
:104DC000FBF71CFEF3E700BF4C380020124900201F
:104DD0001149002008B5024B1878FBF70FFE08BDFB
:104DE0001149002070B584B0064614461D46FCF7F4
:104DF000B1FC221845EB0103002B0BDB9DF82810BA
:104E0000029109990191089900913046FCF7D8FA6E
:104E100004B070BD4FF0FF326FF00043EEE7F0B525
:104E200085B005460C4616461F46FCF755FA9DF818
:104E300028300293019700962A462346FFF7D2FFB7
:104E400005B0F0BD10B582B00021224811F0A0FEDF
:104E500000BB214B1B68DBB1EFF3108272B6D3E8C5
:104E6000CF0F01210028FAD1C3E8401F0028F6D156
:104E7000BFF35F8F18494A6018480378DBB20124FA
:104E8000047008680021C0E88F1F82F31088BBB14E
:104E900002B010BD00214FF0FF3001F093F9002067
:104EA00001F066FC04460B4811F046FE002CEFD0E2
:104EB0000B4B1B68002BEBD00A4A10689847E7E7BA
:104EC00000940B46084A4FF47A700021FFF7A7FFC1
:104ED000DEE700BFC84800204C38002012490020FF
:104EE000683300206C330020654D001010B582B08F
:104EF0004FF050431C68FCF7EFF9FCF7D1FAA042E1
:104F00002DD1244B1B780021084602F0F9F8224BE2
:104F10001B6853B30120FBF757FFC0B21F4C207032
:104F20001F49FBF78BFD01212078FBF75DFD0E206B
:104F3000FBF778FD0446E0B10120FBF7ABFC01462E
:104F40001848FBF79FFF002217490E20FBF7A6FD2C
:104F500001211648FFF7F6FD204602B010BD144BA4
:104F6000144AC6211448FFF7ABFC0B48FBF748FF77
:104F7000D0E70C4A002313605360012200920F4ACD
:104F80004FF47A700021FFF74AFFC443E40F002C6E
:104F9000E2D0DDE7E81F0210C848002011490020D8
:104FA000454E00104C380020D54D0010C82200207E
:104FB00014730110CC8B01101C730110654D00108F
:104FC00008B5002001F0BAFB08BD000038B5044662
:104FD0000D46FFF7F5FF90B3002001F0C9FB88B341
:104FE000FCF7B8FB1A4A821841F10003002B16DBCC
:104FF000184811F0B9FD40B3FFF7E2FF18B10020E7
:1050000001F0B6FB80B900214FF0FF3001F0DAF873
:105010006FF002040F4811F08FFD204638BD4FF0AD
:10502000FF326FF00043E3E72A462146002001F0FB
:10503000ABFB04460028EDD16FF00204EAE76FF005
:105040000204EAE76FF00204E7E76FF00204E4E726
:1050500040420F00C8480020F8B507460D46FCF74F
:1050600079FB2E4A821841F10003002B04DB2C4807
:1050700011F07AFD28B9F8BD4FF0FF326FF0004310
:10508000F5E7FFF79DFF002845D1264B00200021C2
:10509000C3E90001224811F04FFDECE700214FF079
:1050A000FF3001F08FF8002001F088FBFFF788FF48
:1050B0000028EFD0002001F0FFFBF8B1AC42E9DAA4
:1050C0002E1B002001F0F8FB864200DC3046002851
:1050D000E4D002463919002001F0CCFB064600213D
:1050E0004FF0FF3001F06EF8002001F067FB344410
:1050F000FCF730FB0B4BC3E90001DFE7FCF72AFBB1
:10510000084A13685268084E9B1942F10002834214
:105110008A41D3D2BEE70024D0E700BF40420F004F
:10512000C8480020482A002020A1070000487047F6
:10513000488C011000487047F48B011010B50446EC
:10514000144B1B786BB18CB9134B40F209425A8057
:10515000012301335B009BB20F4843F4407303808B
:1051600010BD11210B4800F047F8ECE7052C0ED8D4
:105170000A4B53F824000023122BEAD8C25C002A01
:10518000E7D00133044921F81320DBB2F4E7002013
:10519000E6E700BFD0480020A4330020DC8B0110DC
:1051A00000B58BB045F24730FCF770FC0346012296
:1051B000092101A89847042801D100230EE00A4BD9
:1051C0000A4A2F210A48FFF77BFBC3F10F0228325E
:1051D0006A4412F8241C074AD1540133072BF4DD2A
:1051E0000BB05DF804FB00BFA87301107C8C0110AC
:1051F000B07301107C48002008B511B18C46002224
:1052000008E0104B104A3B211048FFF759FB373399
:10521000835401320CF1FF3393420FD90F2A0DD87A
:1052200053080B49CB5CD14301F0010189000B41CC
:1052300003F00F03092BEADC3033E9E70023835442
:1052400008BD00BFFC7301105C8C0110B07301102D
:105250007C48002030B400F07F05C3094FEA450CBC
:105260000CEBD01C244C04EB4C1C8CF8020083F09B
:1052700001008CF8010000208CF80300ACF8181035
:105280008CF81B20DBB9EA001C49114403EB4500F4
:10529000194A02EB4012916003EB4501164A02EBFA
:1052A00041129268002111607DB903EB4502124B57
:1052B00003EB42135960124ADA6030BC704711495F
:1052C00001EBC501CCF80810E6E753B96A1ED2001D
:1052D0000D49114403EB4503074A02EB43135960A0
:1052E000EBE7691E094A02EBC10203EB4501024BE1
:1052F00003EB41135A60E0E728340020840010508B
:1053000000011050800010500C0010500800105088
:1053100008B5038B3F3323F03F03C27E022A08D037
:1053200008490A68C26013440B60074A934202D8D6
:1053300008BD5B00F4E7054B054A52210548FFF71D
:10534000BFFA00BF30380020FF0F10500474011066
:10535000C88C01104874011070B500F07F054FEA49
:10536000450C0CEBD0130C4C04EB4314FFF772FF0D
:1053700005B970BD218B2046FFF7CAFFE27EE368C6
:1053800083F0A04383F4801343EA826343F0004335
:1053900062681360EDE700BF2834002008B500F014
:1053A0007F035B0003EBD010024B03EB401000F0D7
:1053B0001BF908BD2834002008B520B901210E20B2
:1053C000FBF712FB08BD034B034A40F29711034859
:1053D000FFF776FAB4740110B88C0110487401100C
:1053E00008B528B9002211468020FFF7D7FF08BD75
:1053F000034B044A40F2A1110348FFF761FA00BFD2
:10540000B4740110A88C011048740110024B4FF4C1
:105410008032DA64704700BF0020115070B548BB7D
:10542000064600F0C1F8174C0C23A367FF2216496B
:105430000E20FBF733FB40252A460021134810F0CD
:10544000A5F8002229461046FFF786FF00222946CC
:105450008020FFF781FF11F057FB012525644FF0F5
:105460000053E3640A4BC4F890303046FFF7CEFF98
:10547000284670BD074B084A40F263110748FFF702
:105480001FFA00BF000011509903002028340020AB
:1054900010D00100B4740110DC8C011048740110AC
:1054A000044B197021B1044B4FF40032C3F8902023
:1054B000704700BF0D490020002011500B7813F0F9
:1054C0007F0F02D14B78052B00D070474B88DBB2A1
:1054D000014A1360F9E700BF00001150CA7802F0DA
:1054E0000302012A09D008B50B468988C1F30A01D5
:1054F0009878FFF731FF012008BD0020704708B5FC
:1055000011F002FB08BD000010B530B90846114685
:105510001A46FFF743FF012010BD034B034A4FF427
:1055200001710348FFF7CCF9B4740110988C011095
:105530004874011008B511F07F0304D1CA090ED1D7
:105540000220084A90665B0003EBD1134FF400621F
:105550000021054800EB431011F002FB08BD0120BB
:10556000EFE700BF002011502834002008B511F0EB
:105570007F0300D108BD5B0003EBD113044800EBAF
:1055800043100022C2706FF4006111F0E9FAF1E7F4
:105590002834002004E011F8012B00F8012B1A46F2
:1055A000531E002AF7D1704708B54FF080530A4ABE
:1055B000136002F580521360084B9B6813F0805F04
:1055C000FAD04FF48052002105480FF0DFFF054B61
:1055D00009225A6708BD00BF0020024000000240B7
:1055E000000010500000115070B504460D461646DC
:1055F000837EABB9A6820023E3820123A3762561D3
:10560000204611F0A5FA20B10B4B4FF40032C3F83D
:105610009020204611F0A0FA50B10123237770BDED
:1056200081780648FFF7E6FA204611F051FAE1E7E3
:10563000204611F065FAF2E700201150A075011024
:1056400038B50546002408E0D21A1B4B03EB421381
:10565000DB68284698470134E4B2184B1B78224691
:10566000591CA14215DBA342EED9154B1B6813EB65
:105670004413EDD140F2252212491348FFF7BAFA3C
:105680004FF0E023D3F8F03D13F0010F13D000BE2C
:1056900011E00E4C5422002120460FF077FF4FF00E
:1056A000FF336360A360E36023612022FF2104F1E4
:1056B00014000FF06BFF38BDB08D01100C490020B5
:1056C000A42D00207C8D0110D8750110802F0020A2
:1056D00008B5FFF7B5FF00F043FF08BD70B50546FC
:1056E0000C461646486900F045FF636932460121C1
:1056F0002846984770BD00002DE9F04F83B08246E0
:10570000481EC0B2FFF716FD20B1834643780193CF
:10571000022B11D040F2D63262496348FFF76AFA91
:105720004FF0E023D3F8F03D13F0010F00D000BE9E
:10573000002003B0BDE8F08FC279C2F340105B4B8C
:10574000197860F304111970C2F38012C9B262F3C0
:10575000451119700BF10908BBF802309B447BE03E
:1057600098F8033098F8002090447DE040F2F13240
:105770004C494D48FFF73EFA4FF0E023D3F8F03D97
:1057800013F0010F00D000BE0020D2E7F31A484A00
:1057900002EB4319D9F810302A4641465046984743
:1057A000082801D985421ED20134E4B2414B1B784E
:1057B00026465A1CA2424ADBA342E7D93E4B1B684D
:1057C00013EB4419E6D140F2FA3236493648FFF776
:1057D00011FA4FF0E023D3F8F03D13F0010F00D0A1
:1057E00000BE0020A5E73B464F468146012B11D065
:1057F00000218B4224D998F802200A44D2B22B48C7
:1058000010440079FF280BD128480244147101315B
:10581000C9B2EEE73969294A9142E9D1019BE7E72C
:1058200040F219421F492048FFF7E4F94FF0E02306
:10583000D3F8F03D13F0010F00D000BE002078E750
:1058400023464A4641461E4801F066FDC844194BAE
:105850001B7801339E4212DCD84520D298F80130E3
:105860000B2B3FF47DAF012398F80120042A7FF42D
:105870007DAFABEB0805ADB200241F4696E74FF4B1
:10588000856208490848FFF7B5F94FF0E023D3F8DF
:10589000F03D13F0010F00D000BE002049E70120C9
:1058A00047E700BF508D0110D8750110802F0020F0
:1058B000B08D01100C490020A42D0020316A001089
:1058C000942F0020704770470020704700207047D9
:1058D00038B505460C464B881A0AD8B2531E0E2B13
:1058E00064D8DFE803F0082D4E6363592D636363CA
:1058F000636363632200FFF719FC024628B1122399
:105900002146284600F0D6FD51E040F23A422C49AB
:105910002C48FFF76FF94FF0E023D3F8F03D13F078
:10592000010F00D000BE002041E0FFF7BFF90246A2
:1059300000283DD043882146284600F0BBFD36E0D4
:10594000022A09D0FFF7C2FF024698B353882146C6
:10595000284600F0AFFD2AE0FFF7ECFB02460028E6
:10596000F4D140F2614216491648FFF743F94FF06F
:10597000E023D3F8F03D13F0010F00D000BE00206B
:1059800015E0A188FFF7DAFB0246A8B103782146AB
:10599000284600F08FFD0AE0FFF796FF024668B147
:1059A00003782146284600F085FD00E0002038BD40
:1059B0000020FCE70020FAE70020F8E70020F6E7E7
:1059C000388D0110D87501107047704770477047C7
:1059D000034B5878C0B2003818BF0120704700BF91
:1059E000802F0020024B1878C0F38000704700BF62
:1059F000802F0020024B1878FF3818BF0120704715
:105A0000FC220020F8B506460D46FFF7F3FF0746D7
:105A1000002854D105B35422002137480FF0B6FDB9
:105A2000364B00221A70364C2046FBF7E9F9354B0D
:105A30001C60354C2046FBF72DFA143C204602F042
:105A400025F8324B1C60324B23B13248FFF74AF93C
:105A5000314B1860002417E04FF4E9722F493048A9
:105A6000FFF7C8F84FF0E023D3F8F03D13F0010F33
:105A700025D000BE23E0D21A2A4B03EB42135B6809
:105A80007BB198470134E4B2224B1B782246591C63
:105A9000A14216DBA342EED91F4B1B6813EB441344
:105AA000EDD14FF4F8721D491D48FFF7A3F84FF0F0
:105AB000E023D3F8F03D13F0010F00D000BE3846CC
:105AC000F8BD194B1E7029463046FFF7A7FC074664
:105AD00018B13046FFF770FCF1E74FF4FC720F4944
